{
  "_format": "hh-sol-artifact-1",
  "contractName": "BTCBridge",
  "sourceName": "contracts/BTCBridge.sol",
  "abi": [
    {
      "inputs": [
        {
          "internalType": "address",
          "name": "_beneficiary",
          "type": "address"
        }
      ],
      "stateMutability": "nonpayable",
      "type": "constructor"
    },
    {
      "anonymous": false,
      "inputs": [
        {
          "indexed": false,
          "internalType": "address",
          "name": "initiator",
          "type": "address"
        },
        {
          "indexed": false,
          "internalType": "address",
          "name": "token",
          "type": "address"
        },
        {
          "indexed": false,
          "internalType": "uint256",
          "name": "amount",
          "type": "uint256"
        },
        {
          "indexed": false,
          "internalType": "string",
          "name": "out_chain",
          "type": "string"
        },
        {
          "indexed": false,
          "internalType": "string",
          "name": "out_address",
          "type": "string"
        }
      ],
      "name": "Deposit",
      "type": "event"
    },
    {
      "inputs": [],
      "name": "beneficiary",
      "outputs": [
        {
          "internalType": "address",
          "name": "",
          "type": "address"
        }
      ],
      "stateMutability": "view",
      "type": "function"
    },
    {
      "inputs": [
        {
          "internalType": "address",
          "name": "token",
          "type": "address"
        },
        {
          "internalType": "uint256",
          "name": "amount",
          "type": "uint256"
        },
        {
          "internalType": "string",
          "name": "out_chain",
          "type": "string"
        },
        {
          "internalType": "string",
          "name": "out_address",
          "type": "string"
        }
      ],
      "name": "depositERC20",
      "outputs": [],
      "stateMutability": "nonpayable",
      "type": "function"
    },
    {
      "inputs": [
        {
          "internalType": "string",
          "name": "out_chain",
          "type": "string"
        },
        {
          "internalType": "string",
          "name": "out_address",
          "type": "string"
        }
      ],
      "name": "depositETH",
      "outputs": [],
      "stateMutability": "payable",
      "type": "function"
    }
  ],
  "bytecode": "0x608060405234801561001057600080fd5b50604051610865380380610865833981810160405281019061003291906100db565b806000806101000a81548173ffffffffffffffffffffffffffffffffffffffff021916908373ffffffffffffffffffffffffffffffffffffffff16021790555050610108565b600080fd5b600073ffffffffffffffffffffffffffffffffffffffff82169050919050565b60006100a88261007d565b9050919050565b6100b88161009d565b81146100c357600080fd5b50565b6000815190506100d5816100af565b92915050565b6000602082840312156100f1576100f0610078565b5b60006100ff848285016100c6565b91505092915050565b61074e806101176000396000f3fe6080604052600436106100345760003560e01c80632841efd01461003957806338af3eed14610055578063da917f6314610080575b600080fd5b610053600480360381019061004e91906103b8565b6100a9565b005b34801561006157600080fd5b5061006a610154565b6040516100779190610471565b60405180910390f35b34801561008c57600080fd5b506100a760048036038101906100a291906104ee565b610178565b005b60008054906101000a900473ffffffffffffffffffffffffffffffffffffffff1673ffffffffffffffffffffffffffffffffffffffff166108fc349081150290604051600060405180830381858888f1935050505015801561010f573d6000803e3d6000fd5b507f484436d7b5cd421d3a6fc57240d637a546628f13c479d0dbe468bed9854620f633600034858560405161014895949392919061061b565b60405180910390a15050565b60008054906101000a900473ffffffffffffffffffffffffffffffffffffffff1681565b8373ffffffffffffffffffffffffffffffffffffffff166323b872dd3360008054906101000a900473ffffffffffffffffffffffffffffffffffffffff16866040518463ffffffff1660e01b81526004016101d59392919061067c565b6020604051808303816000875af11580156101f4573d6000803e3d6000fd5b505050506040513d601f19601f8201168201806040525081019061021891906106eb565b507f484436d7b5cd421d3a6fc57240d637a546628f13c479d0dbe468bed9854620f6338585858560405161025095949392919061061b565b60405180910390a150505050565b6000604051905090565b600080fd5b600080fd5b600080fd5b600080fd5b6000601f19601f8301169050919050565b7f4e487b7100000000000000000000000000000000000000000000000000000000600052604160045260246000fd5b6102c58261027c565b810181811067ffffffffffffffff821117156102e4576102e361028d565b5b80604052505050565b60006102f761025e565b905061030382826102bc565b919050565b600067ffffffffffffffff8211156103235761032261028d565b5b61032c8261027c565b9050602081019050919050565b82818337600083830152505050565b600061035b61035684610308565b6102ed565b90508281526020810184848401111561037757610376610277565b5b610382848285610339565b509392505050565b600082601f83011261039f5761039e610272565b5b81356103af848260208601610348565b91505092915050565b600080604083850312156103cf576103ce610268565b5b600083013567ffffffffffffffff8111156103ed576103ec61026d565b5b6103f98582860161038a565b925050602083013567ffffffffffffffff81111561041a5761041961026d565b5b6104268582860161038a565b9150509250929050565b600073ffffffffffffffffffffffffffffffffffffffff82169050919050565b600061045b82610430565b9050919050565b61046b81610450565b82525050565b60006020820190506104866000830184610462565b92915050565b61049581610450565b81146104a057600080fd5b50565b6000813590506104b28161048c565b92915050565b6000819050919050565b6104cb816104b8565b81146104d657600080fd5b50565b6000813590506104e8816104c2565b92915050565b6000806000806080858703121561050857610507610268565b5b6000610516878288016104a3565b9450506020610527878288016104d9565b935050604085013567ffffffffffffffff8111156105485761054761026d565b5b6105548782880161038a565b925050606085013567ffffffffffffffff8111156105755761057461026d565b5b6105818782880161038a565b91505092959194509250565b610596816104b8565b82525050565b600081519050919050565b600082825260208201905092915050565b60005b838110156105d65780820151818401526020810190506105bb565b60008484015250505050565b60006105ed8261059c565b6105f781856105a7565b93506106078185602086016105b8565b6106108161027c565b840191505092915050565b600060a0820190506106306000830188610462565b61063d6020830187610462565b61064a604083018661058d565b818103606083015261065c81856105e2565b9050818103608083015261067081846105e2565b90509695505050505050565b60006060820190506106916000830186610462565b61069e6020830185610462565b6106ab604083018461058d565b949350505050565b60008115159050919050565b6106c8816106b3565b81146106d357600080fd5b50565b6000815190506106e5816106bf565b92915050565b60006020828403121561070157610700610268565b5b600061070f848285016106d6565b9150509291505056fea2646970667358221220093bba2851e56a7126bfc680d027b74acabbe07b078fbe1e03caa899c58d025564736f6c63430008110033",
  "linkReferences": {},
  "deployedLinkReferences": {}
}