{
  "_format": "hh-sol-artifact-1",
  "contractName": "BTCBridge",
  "sourceName": "contracts/BTCBridge.sol",
  "abi": [
    {
      "inputs": [
        {
          "internalType": "address",
          "name": "_beneficiary",
          "type": "address"
        }
      ],
      "stateMutability": "nonpayable",
      "type": "constructor"
    },
    {
      "anonymous": false,
      "inputs": [
        {
          "indexed": true,
          "internalType": "address",
          "name": "initiator",
          "type": "address"
        },
        {
          "indexed": false,
          "internalType": "address",
          "name": "token",
          "type": "address"
        },
        {
          "indexed": false,
          "internalType": "uint256",
          "name": "amount",
          "type": "uint256"
        },
        {
          "indexed": false,
          "internalType": "string",
          "name": "out_chain",
          "type": "string"
        },
        {
          "indexed": false,
          "internalType": "string",
          "name": "out_address",
          "type": "string"
        }
      ],
      "name": "Deposit",
      "type": "event"
    },
    {
      "inputs": [],
      "name": "beneficiary",
      "outputs": [
        {
          "internalType": "address",
          "name": "",
          "type": "address"
        }
      ],
      "stateMutability": "view",
      "type": "function"
    },
    {
      "inputs": [
        {
          "internalType": "address",
          "name": "token",
          "type": "address"
        },
        {
          "internalType": "uint256",
          "name": "amount",
          "type": "uint256"
        },
        {
          "internalType": "string",
          "name": "out_chain",
          "type": "string"
        },
        {
          "internalType": "string",
          "name": "out_address",
          "type": "string"
        }
      ],
      "name": "depositERC20",
      "outputs": [],
      "stateMutability": "nonpayable",
      "type": "function"
    },
    {
      "inputs": [
        {
          "internalType": "string",
          "name": "out_chain",
          "type": "string"
        },
        {
          "internalType": "string",
          "name": "out_address",
          "type": "string"
        }
      ],
      "name": "depositETH",
      "outputs": [],
      "stateMutability": "payable",
      "type": "function"
    }
  ],
  "bytecode": "0x608060405234801561001057600080fd5b50604051610881380380610881833981810160405281019061003291906100db565b806000806101000a81548173ffffffffffffffffffffffffffffffffffffffff021916908373ffffffffffffffffffffffffffffffffffffffff16021790555050610108565b600080fd5b600073ffffffffffffffffffffffffffffffffffffffff82169050919050565b60006100a88261007d565b9050919050565b6100b88161009d565b81146100c357600080fd5b50565b6000815190506100d5816100af565b92915050565b6000602082840312156100f1576100f0610078565b5b60006100ff848285016100c6565b91505092915050565b61076a806101176000396000f3fe6080604052600436106100345760003560e01c80632841efd01461003957806338af3eed14610055578063da917f6314610080575b600080fd5b610053600480360381019061004e91906103e2565b6100a9565b005b34801561006157600080fd5b5061006a610169565b604051610077919061049b565b60405180910390f35b34801561008c57600080fd5b506100a760048036038101906100a29190610518565b61018d565b005b60008054906101000a900473ffffffffffffffffffffffffffffffffffffffff1673ffffffffffffffffffffffffffffffffffffffff166108fc349081150290604051600060405180830381858888f1935050505015801561010f573d6000803e3d6000fd5b503373ffffffffffffffffffffffffffffffffffffffff167f484436d7b5cd421d3a6fc57240d637a546628f13c479d0dbe468bed9854620f6600034858560405161015d9493929190610645565b60405180910390a25050565b60008054906101000a900473ffffffffffffffffffffffffffffffffffffffff1681565b8373ffffffffffffffffffffffffffffffffffffffff166323b872dd3360008054906101000a900473ffffffffffffffffffffffffffffffffffffffff16866040518463ffffffff1660e01b81526004016101ea93929190610698565b6020604051808303816000875af1158015610209573d6000803e3d6000fd5b505050506040513d601f19601f8201168201806040525081019061022d9190610707565b503373ffffffffffffffffffffffffffffffffffffffff167f484436d7b5cd421d3a6fc57240d637a546628f13c479d0dbe468bed9854620f68585858560405161027a9493929190610645565b60405180910390a250505050565b6000604051905090565b600080fd5b600080fd5b600080fd5b600080fd5b6000601f19601f8301169050919050565b7f4e487b7100000000000000000000000000000000000000000000000000000000600052604160045260246000fd5b6102ef826102a6565b810181811067ffffffffffffffff8211171561030e5761030d6102b7565b5b80604052505050565b6000610321610288565b905061032d82826102e6565b919050565b600067ffffffffffffffff82111561034d5761034c6102b7565b5b610356826102a6565b9050602081019050919050565b82818337600083830152505050565b600061038561038084610332565b610317565b9050828152602081018484840111156103a1576103a06102a1565b5b6103ac848285610363565b509392505050565b600082601f8301126103c9576103c861029c565b5b81356103d9848260208601610372565b91505092915050565b600080604083850312156103f9576103f8610292565b5b600083013567ffffffffffffffff81111561041757610416610297565b5b610423858286016103b4565b925050602083013567ffffffffffffffff81111561044457610443610297565b5b610450858286016103b4565b9150509250929050565b600073ffffffffffffffffffffffffffffffffffffffff82169050919050565b60006104858261045a565b9050919050565b6104958161047a565b82525050565b60006020820190506104b0600083018461048c565b92915050565b6104bf8161047a565b81146104ca57600080fd5b50565b6000813590506104dc816104b6565b92915050565b6000819050919050565b6104f5816104e2565b811461050057600080fd5b50565b600081359050610512816104ec565b92915050565b6000806000806080858703121561053257610531610292565b5b6000610540878288016104cd565b945050602061055187828801610503565b935050604085013567ffffffffffffffff81111561057257610571610297565b5b61057e878288016103b4565b925050606085013567ffffffffffffffff81111561059f5761059e610297565b5b6105ab878288016103b4565b91505092959194509250565b6105c0816104e2565b82525050565b600081519050919050565b600082825260208201905092915050565b60005b838110156106005780820151818401526020810190506105e5565b60008484015250505050565b6000610617826105c6565b61062181856105d1565b93506106318185602086016105e2565b61063a816102a6565b840191505092915050565b600060808201905061065a600083018761048c565b61066760208301866105b7565b8181036040830152610679818561060c565b9050818103606083015261068d818461060c565b905095945050505050565b60006060820190506106ad600083018661048c565b6106ba602083018561048c565b6106c760408301846105b7565b949350505050565b60008115159050919050565b6106e4816106cf565b81146106ef57600080fd5b50565b600081519050610701816106db565b92915050565b60006020828403121561071d5761071c610292565b5b600061072b848285016106f2565b9150509291505056fea2646970667358221220f37c0a013689c07555111a8184ed7e3db9db589a4e46d25adaae9eef79f04cf464736f6c63430008110033",
  "linkReferences": {},
  "deployedLinkReferences": {}
}